{
  "contractName": "NftMarket",
  "abi": [
    {
      "inputs": [],
      "stateMutability": "nonpayable",
      "type": "constructor"
    },
    {
      "anonymous": false,
      "inputs": [
        {
          "indexed": true,
          "internalType": "address",
          "name": "owner",
          "type": "address"
        },
        {
          "indexed": true,
          "internalType": "address",
          "name": "approved",
          "type": "address"
        },
        {
          "indexed": true,
          "internalType": "uint256",
          "name": "tokenId",
          "type": "uint256"
        }
      ],
      "name": "Approval",
      "type": "event"
    },
    {
      "anonymous": false,
      "inputs": [
        {
          "indexed": true,
          "internalType": "address",
          "name": "owner",
          "type": "address"
        },
        {
          "indexed": true,
          "internalType": "address",
          "name": "operator",
          "type": "address"
        },
        {
          "indexed": false,
          "internalType": "bool",
          "name": "approved",
          "type": "bool"
        }
      ],
      "name": "ApprovalForAll",
      "type": "event"
    },
    {
      "anonymous": false,
      "inputs": [
        {
          "indexed": false,
          "internalType": "uint256",
          "name": "tokenId",
          "type": "uint256"
        },
        {
          "indexed": false,
          "internalType": "uint256",
          "name": "price",
          "type": "uint256"
        },
        {
          "indexed": false,
          "internalType": "address",
          "name": "creator",
          "type": "address"
        },
        {
          "indexed": false,
          "internalType": "bool",
          "name": "isListed",
          "type": "bool"
        }
      ],
      "name": "NftItemCreated",
      "type": "event"
    },
    {
      "anonymous": false,
      "inputs": [
        {
          "indexed": true,
          "internalType": "address",
          "name": "previousOwner",
          "type": "address"
        },
        {
          "indexed": true,
          "internalType": "address",
          "name": "newOwner",
          "type": "address"
        }
      ],
      "name": "OwnershipTransferred",
      "type": "event"
    },
    {
      "anonymous": false,
      "inputs": [
        {
          "indexed": true,
          "internalType": "address",
          "name": "from",
          "type": "address"
        },
        {
          "indexed": true,
          "internalType": "address",
          "name": "to",
          "type": "address"
        },
        {
          "indexed": true,
          "internalType": "uint256",
          "name": "tokenId",
          "type": "uint256"
        }
      ],
      "name": "Transfer",
      "type": "event"
    },
    {
      "inputs": [
        {
          "internalType": "address",
          "name": "to",
          "type": "address"
        },
        {
          "internalType": "uint256",
          "name": "tokenId",
          "type": "uint256"
        }
      ],
      "name": "approve",
      "outputs": [],
      "stateMutability": "nonpayable",
      "type": "function"
    },
    {
      "inputs": [
        {
          "internalType": "address",
          "name": "owner",
          "type": "address"
        }
      ],
      "name": "balanceOf",
      "outputs": [
        {
          "internalType": "uint256",
          "name": "",
          "type": "uint256"
        }
      ],
      "stateMutability": "view",
      "type": "function",
      "constant": true
    },
    {
      "inputs": [
        {
          "internalType": "uint256",
          "name": "tokenId",
          "type": "uint256"
        }
      ],
      "name": "getApproved",
      "outputs": [
        {
          "internalType": "address",
          "name": "",
          "type": "address"
        }
      ],
      "stateMutability": "view",
      "type": "function",
      "constant": true
    },
    {
      "inputs": [
        {
          "internalType": "address",
          "name": "owner",
          "type": "address"
        },
        {
          "internalType": "address",
          "name": "operator",
          "type": "address"
        }
      ],
      "name": "isApprovedForAll",
      "outputs": [
        {
          "internalType": "bool",
          "name": "",
          "type": "bool"
        }
      ],
      "stateMutability": "view",
      "type": "function",
      "constant": true
    },
    {
      "inputs": [],
      "name": "listingPrice",
      "outputs": [
        {
          "internalType": "uint256",
          "name": "",
          "type": "uint256"
        }
      ],
      "stateMutability": "view",
      "type": "function",
      "constant": true
    },
    {
      "inputs": [],
      "name": "name",
      "outputs": [
        {
          "internalType": "string",
          "name": "",
          "type": "string"
        }
      ],
      "stateMutability": "view",
      "type": "function",
      "constant": true
    },
    {
      "inputs": [],
      "name": "owner",
      "outputs": [
        {
          "internalType": "address",
          "name": "",
          "type": "address"
        }
      ],
      "stateMutability": "view",
      "type": "function",
      "constant": true
    },
    {
      "inputs": [
        {
          "internalType": "uint256",
          "name": "tokenId",
          "type": "uint256"
        }
      ],
      "name": "ownerOf",
      "outputs": [
        {
          "internalType": "address",
          "name": "",
          "type": "address"
        }
      ],
      "stateMutability": "view",
      "type": "function",
      "constant": true
    },
    {
      "inputs": [],
      "name": "renounceOwnership",
      "outputs": [],
      "stateMutability": "nonpayable",
      "type": "function"
    },
    {
      "inputs": [
        {
          "internalType": "address",
          "name": "from",
          "type": "address"
        },
        {
          "internalType": "address",
          "name": "to",
          "type": "address"
        },
        {
          "internalType": "uint256",
          "name": "tokenId",
          "type": "uint256"
        }
      ],
      "name": "safeTransferFrom",
      "outputs": [],
      "stateMutability": "nonpayable",
      "type": "function"
    },
    {
      "inputs": [
        {
          "internalType": "address",
          "name": "from",
          "type": "address"
        },
        {
          "internalType": "address",
          "name": "to",
          "type": "address"
        },
        {
          "internalType": "uint256",
          "name": "tokenId",
          "type": "uint256"
        },
        {
          "internalType": "bytes",
          "name": "data",
          "type": "bytes"
        }
      ],
      "name": "safeTransferFrom",
      "outputs": [],
      "stateMutability": "nonpayable",
      "type": "function"
    },
    {
      "inputs": [
        {
          "internalType": "address",
          "name": "operator",
          "type": "address"
        },
        {
          "internalType": "bool",
          "name": "approved",
          "type": "bool"
        }
      ],
      "name": "setApprovalForAll",
      "outputs": [],
      "stateMutability": "nonpayable",
      "type": "function"
    },
    {
      "inputs": [
        {
          "internalType": "bytes4",
          "name": "interfaceId",
          "type": "bytes4"
        }
      ],
      "name": "supportsInterface",
      "outputs": [
        {
          "internalType": "bool",
          "name": "",
          "type": "bool"
        }
      ],
      "stateMutability": "view",
      "type": "function",
      "constant": true
    },
    {
      "inputs": [],
      "name": "symbol",
      "outputs": [
        {
          "internalType": "string",
          "name": "",
          "type": "string"
        }
      ],
      "stateMutability": "view",
      "type": "function",
      "constant": true
    },
    {
      "inputs": [
        {
          "internalType": "uint256",
          "name": "tokenId",
          "type": "uint256"
        }
      ],
      "name": "tokenURI",
      "outputs": [
        {
          "internalType": "string",
          "name": "",
          "type": "string"
        }
      ],
      "stateMutability": "view",
      "type": "function",
      "constant": true
    },
    {
      "inputs": [
        {
          "internalType": "address",
          "name": "from",
          "type": "address"
        },
        {
          "internalType": "address",
          "name": "to",
          "type": "address"
        },
        {
          "internalType": "uint256",
          "name": "tokenId",
          "type": "uint256"
        }
      ],
      "name": "transferFrom",
      "outputs": [],
      "stateMutability": "nonpayable",
      "type": "function"
    },
    {
      "inputs": [
        {
          "internalType": "address",
          "name": "newOwner",
          "type": "address"
        }
      ],
      "name": "transferOwnership",
      "outputs": [],
      "stateMutability": "nonpayable",
      "type": "function"
    },
    {
      "inputs": [
        {
          "internalType": "uint256",
          "name": "newPrice",
          "type": "uint256"
        }
      ],
      "name": "setListingPrice",
      "outputs": [],
      "stateMutability": "nonpayable",
      "type": "function"
    },
    {
      "inputs": [
        {
          "internalType": "uint256",
          "name": "tokenId",
          "type": "uint256"
        }
      ],
      "name": "getNftItem",
      "outputs": [
        {
          "components": [
            {
              "internalType": "uint256",
              "name": "tokenId",
              "type": "uint256"
            },
            {
              "internalType": "uint256",
              "name": "price",
              "type": "uint256"
            },
            {
              "internalType": "address",
              "name": "creator",
              "type": "address"
            },
            {
              "internalType": "bool",
              "name": "isListed",
              "type": "bool"
            }
          ],
          "internalType": "struct NftMarket.NftItem",
          "name": "",
          "type": "tuple"
        }
      ],
      "stateMutability": "view",
      "type": "function",
      "constant": true
    },
    {
      "inputs": [],
      "name": "listedItemsCount",
      "outputs": [
        {
          "internalType": "uint256",
          "name": "",
          "type": "uint256"
        }
      ],
      "stateMutability": "view",
      "type": "function",
      "constant": true
    },
    {
      "inputs": [
        {
          "internalType": "string",
          "name": "tokenURI",
          "type": "string"
        }
      ],
      "name": "tokenURIExists",
      "outputs": [
        {
          "internalType": "bool",
          "name": "",
          "type": "bool"
        }
      ],
      "stateMutability": "view",
      "type": "function",
      "constant": true
    },
    {
      "inputs": [],
      "name": "totalSupply",
      "outputs": [
        {
          "internalType": "uint256",
          "name": "",
          "type": "uint256"
        }
      ],
      "stateMutability": "view",
      "type": "function",
      "constant": true
    },
    {
      "inputs": [
        {
          "internalType": "uint256",
          "name": "index",
          "type": "uint256"
        }
      ],
      "name": "tokenByIndex",
      "outputs": [
        {
          "internalType": "uint256",
          "name": "",
          "type": "uint256"
        }
      ],
      "stateMutability": "view",
      "type": "function",
      "constant": true
    },
    {
      "inputs": [
        {
          "internalType": "address",
          "name": "owner",
          "type": "address"
        },
        {
          "internalType": "uint256",
          "name": "index",
          "type": "uint256"
        }
      ],
      "name": "tokenOfOwnerByIndex",
      "outputs": [
        {
          "internalType": "uint256",
          "name": "",
          "type": "uint256"
        }
      ],
      "stateMutability": "view",
      "type": "function",
      "constant": true
    },
    {
      "inputs": [],
      "name": "getOwnedNfts",
      "outputs": [
        {
          "components": [
            {
              "internalType": "uint256",
              "name": "tokenId",
              "type": "uint256"
            },
            {
              "internalType": "uint256",
              "name": "price",
              "type": "uint256"
            },
            {
              "internalType": "address",
              "name": "creator",
              "type": "address"
            },
            {
              "internalType": "bool",
              "name": "isListed",
              "type": "bool"
            }
          ],
          "internalType": "struct NftMarket.NftItem[]",
          "name": "",
          "type": "tuple[]"
        }
      ],
      "stateMutability": "view",
      "type": "function",
      "constant": true
    },
    {
      "inputs": [],
      "name": "getAllNftOnSale",
      "outputs": [
        {
          "components": [
            {
              "internalType": "uint256",
              "name": "tokenId",
              "type": "uint256"
            },
            {
              "internalType": "uint256",
              "name": "price",
              "type": "uint256"
            },
            {
              "internalType": "address",
              "name": "creator",
              "type": "address"
            },
            {
              "internalType": "bool",
              "name": "isListed",
              "type": "bool"
            }
          ],
          "internalType": "struct NftMarket.NftItem[]",
          "name": "",
          "type": "tuple[]"
        }
      ],
      "stateMutability": "view",
      "type": "function",
      "constant": true
    },
    {
      "inputs": [
        {
          "internalType": "uint256",
          "name": "tokenId",
          "type": "uint256"
        }
      ],
      "name": "buyNft",
      "outputs": [],
      "stateMutability": "payable",
      "type": "function",
      "payable": true
    },
    {
      "inputs": [
        {
          "internalType": "string",
          "name": "tokenURI",
          "type": "string"
        },
        {
          "internalType": "uint256",
          "name": "price",
          "type": "uint256"
        }
      ],
      "name": "mintToken",
      "outputs": [
        {
          "internalType": "uint256",
          "name": "",
          "type": "uint256"
        }
      ],
      "stateMutability": "payable",
      "type": "function",
      "payable": true
    },
    {
      "inputs": [
        {
          "internalType": "uint256",
          "name": "tokenId",
          "type": "uint256"
        },
        {
          "internalType": "uint256",
          "name": "newPrice",
          "type": "uint256"
        }
      ],
      "name": "placeNftOnSale",
      "outputs": [],
      "stateMutability": "payable",
      "type": "function",
      "payable": true
    }
  ],
  "bytecode": "0x60806040526658d15e176280006008553480156200001c57600080fd5b506040518060400160405280600c81526020017f4372656174757265734e465400000000000000000000000000000000000000008152506040518060400160405280600481526020017f434e46540000000000000000000000000000000000000000000000000000000081525081600090816200009a91906200041d565b508060019081620000ac91906200041d565b505050620000cf620000c3620000d560201b60201c565b620000dd60201b60201c565b62000504565b600033905090565b6000600760009054906101000a900473ffffffffffffffffffffffffffffffffffffffff16905081600760006101000a81548173ffffffffffffffffffffffffffffffffffffffff021916908373ffffffffffffffffffffffffffffffffffffffff1602179055508173ffffffffffffffffffffffffffffffffffffffff168173ffffffffffffffffffffffffffffffffffffffff167f8be0079c531659141344cd1fd0a4f28419497f9722a3daafe3b4186f6b6457e060405160405180910390a35050565b600081519050919050565b7f4e487b7100000000000000000000000000000000000000000000000000000000600052604160045260246000fd5b7f4e487b7100000000000000000000000000000000000000000000000000000000600052602260045260246000fd5b600060028204905060018216806200022557607f821691505b6020821081036200023b576200023a620001dd565b5b50919050565b60008190508160005260206000209050919050565b60006020601f8301049050919050565b600082821b905092915050565b600060088302620002a57fffffffffffffffffffffffffffffffffffffffffffffffffffffffffffffffff8262000266565b620002b1868362000266565b95508019841693508086168417925050509392505050565b6000819050919050565b6000819050919050565b6000620002fe620002f8620002f284620002c9565b620002d3565b620002c9565b9050919050565b6000819050919050565b6200031a83620002dd565b62000332620003298262000305565b84845462000273565b825550505050565b600090565b620003496200033a565b620003568184846200030f565b505050565b5b818110156200037e57620003726000826200033f565b6001810190506200035c565b5050565b601f821115620003cd57620003978162000241565b620003a28462000256565b81016020851015620003b2578190505b620003ca620003c18562000256565b8301826200035b565b50505b505050565b600082821c905092915050565b6000620003f260001984600802620003d2565b1980831691505092915050565b60006200040d8383620003df565b9150826002028217905092915050565b6200042882620001a3565b67ffffffffffffffff811115620004445762000443620001ae565b5b6200045082546200020c565b6200045d82828562000382565b600060209050601f83116001811462000495576000841562000480578287015190505b6200048c8582620003ff565b865550620004fc565b601f198416620004a58662000241565b60005b82811015620004cf57848901518255600182019150602085019450602081019050620004a8565b86831015620004ef5784890151620004eb601f891682620003df565b8355505b6001600288020188555050505b505050505050565b61483b80620005146000396000f3fe6080604052600436106101c25760003560e01c806370a08231116100f7578063b88d4fde11610095578063ccb4918d11610064578063ccb4918d14610663578063e985e9c51461068e578063eb3d009c146106cb578063f2fde38b146106f6576101c2565b8063b88d4fde146105a2578063c046372c146105cb578063c78f19f9146105fb578063c87b56dd14610626576101c2565b80637c726b69116100d15780637c726b69146104fa5780638da5cb5b1461052357806395d89b411461054e578063a22cb46514610579576101c2565b806370a082311461047b57806370cbcb43146104b8578063715018a6146104e3576101c2565b8063243adbdd1161016457806343d32ae71161013e57806343d32ae7146103875780634f6ccce7146103c45780636352211e146104015780636f1a0af51461043e576101c2565b8063243adbdd146103055780632f745c591461032157806342842e0e1461035e576101c2565b8063095ea7b3116101a0578063095ea7b31461026c57806318160ddd1461029557806321f422e5146102c057806323b872dd146102dc576101c2565b806301ffc9a7146101c757806306fdde0314610204578063081812fc1461022f575b600080fd5b3480156101d357600080fd5b506101ee60048036038101906101e99190612d87565b61071f565b6040516101fb9190612dcf565b60405180910390f35b34801561021057600080fd5b50610219610801565b6040516102269190612e7a565b60405180910390f35b34801561023b57600080fd5b5061025660048036038101906102519190612ed2565b610893565b6040516102639190612f40565b60405180910390f35b34801561027857600080fd5b50610293600480360381019061028e9190612f87565b6108d9565b005b3480156102a157600080fd5b506102aa6109f0565b6040516102b79190612fd6565b60405180910390f35b6102da60048036038101906102d59190612ff1565b6109fd565b005b3480156102e857600080fd5b5061030360048036038101906102fe9190613031565b610b79565b005b61031f600480360381019061031a9190612ed2565b610bd9565b005b34801561032d57600080fd5b5061034860048036038101906103439190612f87565b610d41565b6040516103559190612fd6565b60405180910390f35b34801561036a57600080fd5b5061038560048036038101906103809190613031565b610de6565b005b34801561039357600080fd5b506103ae60048036038101906103a991906131b9565b610e06565b6040516103bb9190612dcf565b60405180910390f35b3480156103d057600080fd5b506103eb60048036038101906103e69190612ed2565b610e42565b6040516103f89190612fd6565b60405180910390f35b34801561040d57600080fd5b5061042860048036038101906104239190612ed2565b610eb3565b6040516104359190612f40565b60405180910390f35b34801561044a57600080fd5b5061046560048036038101906104609190612ed2565b610f64565b6040516104729190613284565b60405180910390f35b34801561048757600080fd5b506104a2600480360381019061049d919061329f565b611016565b6040516104af9190612fd6565b60405180910390f35b3480156104c457600080fd5b506104cd6110cd565b6040516104da91906133d0565b60405180910390f35b3480156104ef57600080fd5b506104f8611231565b005b34801561050657600080fd5b50610521600480360381019061051c9190612ed2565b611245565b005b34801561052f57600080fd5b5061053861129a565b6040516105459190612f40565b60405180910390f35b34801561055a57600080fd5b506105636112c4565b6040516105709190612e7a565b60405180910390f35b34801561058557600080fd5b506105a0600480360381019061059b919061341e565b611356565b005b3480156105ae57600080fd5b506105c960048036038101906105c491906134ff565b61136c565b005b6105e560048036038101906105e09190613582565b6113ce565b6040516105f29190612fd6565b60405180910390f35b34801561060757600080fd5b506106106114de565b60405161061d9190612fd6565b60405180910390f35b34801561063257600080fd5b5061064d60048036038101906106489190612ed2565b6114e4565b60405161065a9190612e7a565b60405180910390f35b34801561066f57600080fd5b506106786115f6565b6040516106859190612fd6565b60405180910390f35b34801561069a57600080fd5b506106b560048036038101906106b091906135de565b611607565b6040516106c29190612dcf565b60405180910390f35b3480156106d757600080fd5b506106e061169b565b6040516106ed91906133d0565b60405180910390f35b34801561070257600080fd5b5061071d6004803603810190610718919061329f565b611835565b005b60007f80ac58cd000000000000000000000000000000000000000000000000000000007bffffffffffffffffffffffffffffffffffffffffffffffffffffffff1916827bffffffffffffffffffffffffffffffffffffffffffffffffffffffff191614806107ea57507f5b5e139f000000000000000000000000000000000000000000000000000000007bffffffffffffffffffffffffffffffffffffffffffffffffffffffff1916827bffffffffffffffffffffffffffffffffffffffffffffffffffffffff1916145b806107fa57506107f9826118b8565b5b9050919050565b6060600080546108109061364d565b80601f016020809104026020016040519081016040528092919081815260200182805461083c9061364d565b80156108895780601f1061085e57610100808354040283529160200191610889565b820191906000526020600020905b81548152906001019060200180831161086c57829003601f168201915b5050505050905090565b600061089e82611922565b6004600083815260200190815260200160002060009054906101000a900473ffffffffffffffffffffffffffffffffffffffff169050919050565b60006108e482610eb3565b90508073ffffffffffffffffffffffffffffffffffffffff168373ffffffffffffffffffffffffffffffffffffffff1603610954576040517f08c379a000000000000000000000000000000000000000000000000000000000815260040161094b906136f0565b60405180910390fd5b8073ffffffffffffffffffffffffffffffffffffffff1661097361196d565b73ffffffffffffffffffffffffffffffffffffffff1614806109a257506109a18161099c61196d565b611607565b5b6109e1576040517f08c379a00000000000000000000000000000000000000000000000000000000081526004016109d890613782565b60405180910390fd5b6109eb8383611975565b505050565b6000600b80549050905090565b3373ffffffffffffffffffffffffffffffffffffffff16610a1d83610eb3565b73ffffffffffffffffffffffffffffffffffffffff1614610a73576040517f08c379a0000000000000000000000000000000000000000000000000000000008152600401610a6a906137ee565b60405180910390fd5b60001515600e600084815260200190815260200160002060020160149054906101000a900460ff16151514610add576040517f08c379a0000000000000000000000000000000000000000000000000000000008152600401610ad49061385a565b60405180910390fd5b6008543414610b21576040517f08c379a0000000000000000000000000000000000000000000000000000000008152600401610b18906138ec565b60405180910390fd5b6001600e600084815260200190815260200160002060020160146101000a81548160ff02191690831515021790555080600e600084815260200190815260200160002060010181905550610b756009611a2e565b5050565b610b8a610b8461196d565b82611a44565b610bc9576040517f08c379a0000000000000000000000000000000000000000000000000000000008152600401610bc09061397e565b60405180910390fd5b610bd4838383611ad9565b505050565b6000600e60008381526020019081526020016000206001015490506000610bff83610eb3565b90508073ffffffffffffffffffffffffffffffffffffffff163373ffffffffffffffffffffffffffffffffffffffff1603610c6f576040517f08c379a0000000000000000000000000000000000000000000000000000000008152600401610c66906139ea565b60405180910390fd5b813414610cb1576040517f08c379a0000000000000000000000000000000000000000000000000000000008152600401610ca890613a56565b60405180910390fd5b6000600e600085815260200190815260200160002060020160146101000a81548160ff021916908315150217905550610cea6009611d3f565b610cf5813385611ad9565b8073ffffffffffffffffffffffffffffffffffffffff166108fc349081150290604051600060405180830381858888f19350505050158015610d3b573d6000803e3d6000fd5b50505050565b6000610d4c83611016565b8210610d8d576040517f08c379a0000000000000000000000000000000000000000000000000000000008152600401610d8490613ac2565b60405180910390fd5b600f60008473ffffffffffffffffffffffffffffffffffffffff1673ffffffffffffffffffffffffffffffffffffffff168152602001908152602001600020600083815260200190815260200160002054905092915050565b610e018383836040518060200160405280600081525061136c565b505050565b600060011515600d83604051610e1c9190613b1e565b908152602001604051809103902060009054906101000a900460ff161515149050919050565b6000610e4c6109f0565b8210610e8d576040517f08c379a0000000000000000000000000000000000000000000000000000000008152600401610e8490613ac2565b60405180910390fd5b600b8281548110610ea157610ea0613b35565b5b90600052602060002001549050919050565b6000806002600084815260200190815260200160002060009054906101000a900473ffffffffffffffffffffffffffffffffffffffff169050600073ffffffffffffffffffffffffffffffffffffffff168173ffffffffffffffffffffffffffffffffffffffff1603610f5b576040517f08c379a0000000000000000000000000000000000000000000000000000000008152600401610f5290613bb0565b60405180910390fd5b80915050919050565b610f6c612cdb565b600e600083815260200190815260200160002060405180608001604052908160008201548152602001600182015481526020016002820160009054906101000a900473ffffffffffffffffffffffffffffffffffffffff1673ffffffffffffffffffffffffffffffffffffffff1673ffffffffffffffffffffffffffffffffffffffff1681526020016002820160149054906101000a900460ff1615151515815250509050919050565b60008073ffffffffffffffffffffffffffffffffffffffff168273ffffffffffffffffffffffffffffffffffffffff1603611086576040517f08c379a000000000000000000000000000000000000000000000000000000000815260040161107d90613c42565b60405180910390fd5b600360008373ffffffffffffffffffffffffffffffffffffffff1673ffffffffffffffffffffffffffffffffffffffff168152602001908152602001600020549050919050565b606060006110da33611016565b905060008167ffffffffffffffff8111156110f8576110f761308e565b5b60405190808252806020026020018201604052801561113157816020015b61111e612cdb565b8152602001906001900390816111165790505b50905060005b8281101561122857600061114b3383610d41565b90506000600e600083815260200190815260200160002090508060405180608001604052908160008201548152602001600182015481526020016002820160009054906101000a900473ffffffffffffffffffffffffffffffffffffffff1673ffffffffffffffffffffffffffffffffffffffff1673ffffffffffffffffffffffffffffffffffffffff1681526020016002820160149054906101000a900460ff16151515158152505084848151811061120857611207613b35565b5b60200260200101819052505050808061122090613c91565b915050611137565b50809250505090565b611239611d9b565b6112436000611e19565b565b61124d611d9b565b60008111611290576040517f08c379a000000000000000000000000000000000000000000000000000000000815260040161128790613d25565b60405180910390fd5b8060088190555050565b6000600760009054906101000a900473ffffffffffffffffffffffffffffffffffffffff16905090565b6060600180546112d39061364d565b80601f01602080910402602001604051908101604052809291908181526020018280546112ff9061364d565b801561134c5780601f106113215761010080835404028352916020019161134c565b820191906000526020600020905b81548152906001019060200180831161132f57829003601f168201915b5050505050905090565b61136861136161196d565b8383611edf565b5050565b61137d61137761196d565b83611a44565b6113bc576040517f08c379a00000000000000000000000000000000000000000000000000000000081526004016113b39061397e565b60405180910390fd5b6113c88484848461204b565b50505050565b60006113d983610e06565b15611419576040517f08c379a000000000000000000000000000000000000000000000000000000000815260040161141090613d91565b60405180910390fd5b600854341461145d576040517f08c379a0000000000000000000000000000000000000000000000000000000008152600401611454906138ec565b60405180910390fd5b611467600a611a2e565b6114716009611a2e565b600061147d600a6120a7565b905061148933826120b5565b61149381856120d3565b61149d8184612140565b6001600d856040516114af9190613b1e565b908152602001604051809103902060006101000a81548160ff0219169083151502179055508091505092915050565b60085481565b60606114ef82611922565b600060066000848152602001908152602001600020805461150f9061364d565b80601f016020809104026020016040519081016040528092919081815260200182805461153b9061364d565b80156115885780601f1061155d57610100808354040283529160200191611588565b820191906000526020600020905b81548152906001019060200180831161156b57829003601f168201915b505050505090506000611599612290565b905060008151036115ae5781925050506115f1565b6000825111156115e35780826040516020016115cb929190613db1565b604051602081830303815290604052925050506115f1565b6115ec846122a7565b925050505b919050565b600061160260096120a7565b905090565b6000600560008473ffffffffffffffffffffffffffffffffffffffff1673ffffffffffffffffffffffffffffffffffffffff16815260200190815260200160002060008373ffffffffffffffffffffffffffffffffffffffff1673ffffffffffffffffffffffffffffffffffffffff16815260200190815260200160002060009054906101000a900460ff16905092915050565b606060006116a76109f0565b90506000806116b660096120a7565b67ffffffffffffffff8111156116cf576116ce61308e565b5b60405190808252806020026020018201604052801561170857816020015b6116f5612cdb565b8152602001906001900390816116ed5790505b50905060005b8381101561182b57600061172182610e42565b90506000600e60008381526020019081526020016000209050600115158160020160149054906101000a900460ff16151503611816578060405180608001604052908160008201548152602001600182015481526020016002820160009054906101000a900473ffffffffffffffffffffffffffffffffffffffff1673ffffffffffffffffffffffffffffffffffffffff1673ffffffffffffffffffffffffffffffffffffffff1681526020016002820160149054906101000a900460ff1615151515815250508486815181106117fb576117fa613b35565b5b60200260200101819052506001856118139190613dd5565b94505b5050808061182390613c91565b91505061170e565b5080935050505090565b61183d611d9b565b600073ffffffffffffffffffffffffffffffffffffffff168173ffffffffffffffffffffffffffffffffffffffff16036118ac576040517f08c379a00000000000000000000000000000000000000000000000000000000081526004016118a390613e7b565b60405180910390fd5b6118b581611e19565b50565b60007f01ffc9a7000000000000000000000000000000000000000000000000000000007bffffffffffffffffffffffffffffffffffffffffffffffffffffffff1916827bffffffffffffffffffffffffffffffffffffffffffffffffffffffff1916149050919050565b61192b8161230f565b61196a576040517f08c379a000000000000000000000000000000000000000000000000000000000815260040161196190613bb0565b60405180910390fd5b50565b600033905090565b816004600083815260200190815260200160002060006101000a81548173ffffffffffffffffffffffffffffffffffffffff021916908373ffffffffffffffffffffffffffffffffffffffff160217905550808273ffffffffffffffffffffffffffffffffffffffff166119e883610eb3565b73ffffffffffffffffffffffffffffffffffffffff167f8c5be1e5ebec7d5bd14f71427d1e84f3dd0314c0f7b2291e5b200ac8c7c3b92560405160405180910390a45050565b6001816000016000828254019250508190555050565b600080611a5083610eb3565b90508073ffffffffffffffffffffffffffffffffffffffff168473ffffffffffffffffffffffffffffffffffffffff161480611a925750611a918185611607565b5b80611ad057508373ffffffffffffffffffffffffffffffffffffffff16611ab884610893565b73ffffffffffffffffffffffffffffffffffffffff16145b91505092915050565b8273ffffffffffffffffffffffffffffffffffffffff16611af982610eb3565b73ffffffffffffffffffffffffffffffffffffffff1614611b4f576040517f08c379a0000000000000000000000000000000000000000000000000000000008152600401611b4690613f0d565b60405180910390fd5b600073ffffffffffffffffffffffffffffffffffffffff168273ffffffffffffffffffffffffffffffffffffffff1603611bbe576040517f08c379a0000000000000000000000000000000000000000000000000000000008152600401611bb590613f9f565b60405180910390fd5b611bc983838361237b565b611bd4600082611975565b6001600360008573ffffffffffffffffffffffffffffffffffffffff1673ffffffffffffffffffffffffffffffffffffffff1681526020019081526020016000206000828254611c249190613fbf565b925050819055506001600360008473ffffffffffffffffffffffffffffffffffffffff1673ffffffffffffffffffffffffffffffffffffffff1681526020019081526020016000206000828254611c7b9190613dd5565b92505081905550816002600083815260200190815260200160002060006101000a81548173ffffffffffffffffffffffffffffffffffffffff021916908373ffffffffffffffffffffffffffffffffffffffff160217905550808273ffffffffffffffffffffffffffffffffffffffff168473ffffffffffffffffffffffffffffffffffffffff167fddf252ad1be2c89b69c2b068fc378daa952ba7f163c4a11628f55a4df523b3ef60405160405180910390a4611d3a83838361248d565b505050565b60008160000154905060008111611d8b576040517f08c379a0000000000000000000000000000000000000000000000000000000008152600401611d829061403f565b60405180910390fd5b6001810382600001819055505050565b611da361196d565b73ffffffffffffffffffffffffffffffffffffffff16611dc161129a565b73ffffffffffffffffffffffffffffffffffffffff1614611e17576040517f08c379a0000000000000000000000000000000000000000000000000000000008152600401611e0e906140ab565b60405180910390fd5b565b6000600760009054906101000a900473ffffffffffffffffffffffffffffffffffffffff16905081600760006101000a81548173ffffffffffffffffffffffffffffffffffffffff021916908373ffffffffffffffffffffffffffffffffffffffff1602179055508173ffffffffffffffffffffffffffffffffffffffff168173ffffffffffffffffffffffffffffffffffffffff167f8be0079c531659141344cd1fd0a4f28419497f9722a3daafe3b4186f6b6457e060405160405180910390a35050565b8173ffffffffffffffffffffffffffffffffffffffff168373ffffffffffffffffffffffffffffffffffffffff1603611f4d576040517f08c379a0000000000000000000000000000000000000000000000000000000008152600401611f4490614117565b60405180910390fd5b80600560008573ffffffffffffffffffffffffffffffffffffffff1673ffffffffffffffffffffffffffffffffffffffff16815260200190815260200160002060008473ffffffffffffffffffffffffffffffffffffffff1673ffffffffffffffffffffffffffffffffffffffff16815260200190815260200160002060006101000a81548160ff0219169083151502179055508173ffffffffffffffffffffffffffffffffffffffff168373ffffffffffffffffffffffffffffffffffffffff167f17307eab39ab6107e8899845ad3d59bd9653f200f220920489ca2b5937696c318360405161203e9190612dcf565b60405180910390a3505050565b612056848484611ad9565b61206284848484612492565b6120a1576040517f08c379a0000000000000000000000000000000000000000000000000000000008152600401612098906141a9565b60405180910390fd5b50505050565b600081600001549050919050565b6120cf828260405180602001604052806000815250612619565b5050565b6120dc8261230f565b61211b576040517f08c379a00000000000000000000000000000000000000000000000000000000081526004016121129061423b565b60405180910390fd5b8060066000848152602001908152602001600020908161213b9190614407565b505050565b60008111612183576040517f08c379a000000000000000000000000000000000000000000000000000000000815260040161217a90614525565b60405180910390fd5b60405180608001604052808381526020018281526020013373ffffffffffffffffffffffffffffffffffffffff16815260200160011515815250600e6000848152602001908152602001600020600082015181600001556020820151816001015560408201518160020160006101000a81548173ffffffffffffffffffffffffffffffffffffffff021916908373ffffffffffffffffffffffffffffffffffffffff16021790555060608201518160020160146101000a81548160ff0219169083151502179055509050507f470031062672bc0246e132c723a729c4676710ec663a29e86c88678032daddea82823360016040516122849493929190614545565b60405180910390a15050565b606060405180602001604052806000815250905090565b60606122b282611922565b60006122bc612290565b905060008151116122dc5760405180602001604052806000815250612307565b806122e684612674565b6040516020016122f7929190613db1565b6040516020818303038152906040525b915050919050565b60008073ffffffffffffffffffffffffffffffffffffffff166002600084815260200190815260200160002060009054906101000a900473ffffffffffffffffffffffffffffffffffffffff1673ffffffffffffffffffffffffffffffffffffffff1614159050919050565b6123868383836127d4565b600073ffffffffffffffffffffffffffffffffffffffff168373ffffffffffffffffffffffffffffffffffffffff16036123c8576123c3816127d9565b612407565b8173ffffffffffffffffffffffffffffffffffffffff168373ffffffffffffffffffffffffffffffffffffffff1614612406576124058382612822565b5b5b600073ffffffffffffffffffffffffffffffffffffffff168273ffffffffffffffffffffffffffffffffffffffff1603612449576124448161298f565b612488565b8273ffffffffffffffffffffffffffffffffffffffff168273ffffffffffffffffffffffffffffffffffffffff1614612487576124868282612a60565b5b5b505050565b505050565b60006124b38473ffffffffffffffffffffffffffffffffffffffff16612adf565b1561260c578373ffffffffffffffffffffffffffffffffffffffff1663150b7a026124dc61196d565b8786866040518563ffffffff1660e01b81526004016124fe94939291906145df565b6020604051808303816000875af192505050801561253a57506040513d601f19601f820116820180604052508101906125379190614640565b60015b6125bc573d806000811461256a576040519150601f19603f3d011682016040523d82523d6000602084013e61256f565b606091505b5060008151036125b4576040517f08c379a00000000000000000000000000000000000000000000000000000000081526004016125ab906141a9565b60405180910390fd5b805181602001fd5b63150b7a0260e01b7bffffffffffffffffffffffffffffffffffffffffffffffffffffffff1916817bffffffffffffffffffffffffffffffffffffffffffffffffffffffff191614915050612611565b600190505b949350505050565b6126238383612b02565b6126306000848484612492565b61266f576040517f08c379a0000000000000000000000000000000000000000000000000000000008152600401612666906141a9565b60405180910390fd5b505050565b6060600082036126bb576040518060400160405280600181526020017f300000000000000000000000000000000000000000000000000000000000000081525090506127cf565b600082905060005b600082146126ed5780806126d690613c91565b915050600a826126e6919061469c565b91506126c3565b60008167ffffffffffffffff8111156127095761270861308e565b5b6040519080825280601f01601f19166020018201604052801561273b5781602001600182028036833780820191505090505b5090505b600085146127c8576001826127549190613fbf565b9150600a8561276391906146cd565b603061276f9190613dd5565b60f81b81838151811061278557612784613b35565b5b60200101907effffffffffffffffffffffffffffffffffffffffffffffffffffffffffffff1916908160001a905350600a856127c1919061469c565b945061273f565b8093505050505b919050565b505050565b600b80549050600c600083815260200190815260200160002081905550600b81908060018154018082558091505060019003906000526020600020016000909190919091505550565b6000600161282f84611016565b6128399190613fbf565b905060006010600084815260200190815260200160002054905081811461291e576000600f60008673ffffffffffffffffffffffffffffffffffffffff1673ffffffffffffffffffffffffffffffffffffffff168152602001908152602001600020600084815260200190815260200160002054905080600f60008773ffffffffffffffffffffffffffffffffffffffff1673ffffffffffffffffffffffffffffffffffffffff168152602001908152602001600020600084815260200190815260200160002081905550816010600083815260200190815260200160002081905550505b6010600084815260200190815260200160002060009055600f60008573ffffffffffffffffffffffffffffffffffffffff1673ffffffffffffffffffffffffffffffffffffffff16815260200190815260200160002060008381526020019081526020016000206000905550505050565b60006001600b805490506129a39190613fbf565b90506000600c60008481526020019081526020016000205490506000600b83815481106129d3576129d2613b35565b5b9060005260206000200154905080600b83815481106129f5576129f4613b35565b5b906000526020600020018190555081600c600083815260200190815260200160002081905550600c600085815260200190815260200160002060009055600b805480612a4457612a436146fe565b5b6001900381819060005260206000200160009055905550505050565b6000612a6b83611016565b905081600f60008573ffffffffffffffffffffffffffffffffffffffff1673ffffffffffffffffffffffffffffffffffffffff168152602001908152602001600020600083815260200190815260200160002081905550806010600084815260200190815260200160002081905550505050565b6000808273ffffffffffffffffffffffffffffffffffffffff163b119050919050565b600073ffffffffffffffffffffffffffffffffffffffff168273ffffffffffffffffffffffffffffffffffffffff1603612b71576040517f08c379a0000000000000000000000000000000000000000000000000000000008152600401612b6890614779565b60405180910390fd5b612b7a8161230f565b15612bba576040517f08c379a0000000000000000000000000000000000000000000000000000000008152600401612bb1906147e5565b60405180910390fd5b612bc66000838361237b565b6001600360008473ffffffffffffffffffffffffffffffffffffffff1673ffffffffffffffffffffffffffffffffffffffff1681526020019081526020016000206000828254612c169190613dd5565b92505081905550816002600083815260200190815260200160002060006101000a81548173ffffffffffffffffffffffffffffffffffffffff021916908373ffffffffffffffffffffffffffffffffffffffff160217905550808273ffffffffffffffffffffffffffffffffffffffff16600073ffffffffffffffffffffffffffffffffffffffff167fddf252ad1be2c89b69c2b068fc378daa952ba7f163c4a11628f55a4df523b3ef60405160405180910390a4612cd76000838361248d565b5050565b60405180608001604052806000815260200160008152602001600073ffffffffffffffffffffffffffffffffffffffff1681526020016000151581525090565b6000604051905090565b600080fd5b600080fd5b60007fffffffff0000000000000000000000000000000000000000000000000000000082169050919050565b612d6481612d2f565b8114612d6f57600080fd5b50565b600081359050612d8181612d5b565b92915050565b600060208284031215612d9d57612d9c612d25565b5b6000612dab84828501612d72565b91505092915050565b60008115159050919050565b612dc981612db4565b82525050565b6000602082019050612de46000830184612dc0565b92915050565b600081519050919050565b600082825260208201905092915050565b60005b83811015612e24578082015181840152602081019050612e09565b60008484015250505050565b6000601f19601f8301169050919050565b6000612e4c82612dea565b612e568185612df5565b9350612e66818560208601612e06565b612e6f81612e30565b840191505092915050565b60006020820190508181036000830152612e948184612e41565b905092915050565b6000819050919050565b612eaf81612e9c565b8114612eba57600080fd5b50565b600081359050612ecc81612ea6565b92915050565b600060208284031215612ee857612ee7612d25565b5b6000612ef684828501612ebd565b91505092915050565b600073ffffffffffffffffffffffffffffffffffffffff82169050919050565b6000612f2a82612eff565b9050919050565b612f3a81612f1f565b82525050565b6000602082019050612f556000830184612f31565b92915050565b612f6481612f1f565b8114612f6f57600080fd5b50565b600081359050612f8181612f5b565b92915050565b60008060408385031215612f9e57612f9d612d25565b5b6000612fac85828601612f72565b9250506020612fbd85828601612ebd565b9150509250929050565b612fd081612e9c565b82525050565b6000602082019050612feb6000830184612fc7565b92915050565b6000806040838503121561300857613007612d25565b5b600061301685828601612ebd565b925050602061302785828601612ebd565b9150509250929050565b60008060006060848603121561304a57613049612d25565b5b600061305886828701612f72565b935050602061306986828701612f72565b925050604061307a86828701612ebd565b9150509250925092565b600080fd5b600080fd5b7f4e487b7100000000000000000000000000000000000000000000000000000000600052604160045260246000fd5b6130c682612e30565b810181811067ffffffffffffffff821117156130e5576130e461308e565b5b80604052505050565b60006130f8612d1b565b905061310482826130bd565b919050565b600067ffffffffffffffff8211156131245761312361308e565b5b61312d82612e30565b9050602081019050919050565b82818337600083830152505050565b600061315c61315784613109565b6130ee565b90508281526020810184848401111561317857613177613089565b5b61318384828561313a565b509392505050565b600082601f8301126131a05761319f613084565b5b81356131b0848260208601613149565b91505092915050565b6000602082840312156131cf576131ce612d25565b5b600082013567ffffffffffffffff8111156131ed576131ec612d2a565b5b6131f98482850161318b565b91505092915050565b61320b81612e9c565b82525050565b61321a81612f1f565b82525050565b61322981612db4565b82525050565b6080820160008201516132456000850182613202565b5060208201516132586020850182613202565b50604082015161326b6040850182613211565b50606082015161327e6060850182613220565b50505050565b6000608082019050613299600083018461322f565b92915050565b6000602082840312156132b5576132b4612d25565b5b60006132c384828501612f72565b91505092915050565b600081519050919050565b600082825260208201905092915050565b6000819050602082019050919050565b60808201600082015161330e6000850182613202565b5060208201516133216020850182613202565b5060408201516133346040850182613211565b5060608201516133476060850182613220565b50505050565b600061335983836132f8565b60808301905092915050565b6000602082019050919050565b600061337d826132cc565b61338781856132d7565b9350613392836132e8565b8060005b838110156133c35781516133aa888261334d565b97506133b583613365565b925050600181019050613396565b5085935050505092915050565b600060208201905081810360008301526133ea8184613372565b905092915050565b6133fb81612db4565b811461340657600080fd5b50565b600081359050613418816133f2565b92915050565b6000806040838503121561343557613434612d25565b5b600061344385828601612f72565b925050602061345485828601613409565b9150509250929050565b600067ffffffffffffffff8211156134795761347861308e565b5b61348282612e30565b9050602081019050919050565b60006134a261349d8461345e565b6130ee565b9050828152602081018484840111156134be576134bd613089565b5b6134c984828561313a565b509392505050565b600082601f8301126134e6576134e5613084565b5b81356134f684826020860161348f565b91505092915050565b6000806000806080858703121561351957613518612d25565b5b600061352787828801612f72565b945050602061353887828801612f72565b935050604061354987828801612ebd565b925050606085013567ffffffffffffffff81111561356a57613569612d2a565b5b613576878288016134d1565b91505092959194509250565b6000806040838503121561359957613598612d25565b5b600083013567ffffffffffffffff8111156135b7576135b6612d2a565b5b6135c38582860161318b565b92505060206135d485828601612ebd565b9150509250929050565b600080604083850312156135f5576135f4612d25565b5b600061360385828601612f72565b925050602061361485828601612f72565b9150509250929050565b7f4e487b7100000000000000000000000000000000000000000000000000000000600052602260045260246000fd5b6000600282049050600182168061366557607f821691505b6020821081036136785761367761361e565b5b50919050565b7f4552433732313a20617070726f76616c20746f2063757272656e74206f776e6560008201527f7200000000000000000000000000000000000000000000000000000000000000602082015250565b60006136da602183612df5565b91506136e58261367e565b604082019050919050565b60006020820190508181036000830152613709816136cd565b9050919050565b7f4552433732313a20617070726f76652063616c6c6572206973206e6f7420746f60008201527f6b656e206f776e6572206e6f7220617070726f76656420666f7220616c6c0000602082015250565b600061376c603e83612df5565b915061377782613710565b604082019050919050565b6000602082019050818103600083015261379b8161375f565b9050919050565b7f4e6f74204f776e204e4654000000000000000000000000000000000000000000600082015250565b60006137d8600b83612df5565b91506137e3826137a2565b602082019050919050565b60006020820190508181036000830152613807816137cb565b9050919050565b7f6974656d20736f6c656400000000000000000000000000000000000000000000600082015250565b6000613844600a83612df5565b915061384f8261380e565b602082019050919050565b6000602082019050818103600083015261387381613837565b9050919050565b7f5072696365206d75737420626520657175616c20746f206c697374696e67207060008201527f7269636500000000000000000000000000000000000000000000000000000000602082015250565b60006138d6602483612df5565b91506138e18261387a565b604082019050919050565b60006020820190508181036000830152613905816138c9565b9050919050565b7f4552433732313a2063616c6c6572206973206e6f7420746f6b656e206f776e6560008201527f72206e6f7220617070726f766564000000000000000000000000000000000000602082015250565b6000613968602e83612df5565b91506139738261390c565b604082019050919050565b600060208201905081810360008301526139978161395b565b9050919050565b7f596f7520616c7265616479206f776e2074686973206e66740000000000000000600082015250565b60006139d4601883612df5565b91506139df8261399e565b602082019050919050565b60006020820190508181036000830152613a03816139c7565b9050919050565b7f506c65617365207375626d69742074686520636f727265637420707269636500600082015250565b6000613a40601f83612df5565b9150613a4b82613a0a565b602082019050919050565b60006020820190508181036000830152613a6f81613a33565b9050919050565b7f696e646578206f7574206f662074686520626f756e6365000000000000000000600082015250565b6000613aac601783612df5565b9150613ab782613a76565b602082019050919050565b60006020820190508181036000830152613adb81613a9f565b9050919050565b600081905092915050565b6000613af882612dea565b613b028185613ae2565b9350613b12818560208601612e06565b80840191505092915050565b6000613b2a8284613aed565b915081905092915050565b7f4e487b7100000000000000000000000000000000000000000000000000000000600052603260045260246000fd5b7f4552433732313a20696e76616c696420746f6b656e2049440000000000000000600082015250565b6000613b9a601883612df5565b9150613ba582613b64565b602082019050919050565b60006020820190508181036000830152613bc981613b8d565b9050919050565b7f4552433732313a2061646472657373207a65726f206973206e6f74206120766160008201527f6c6964206f776e65720000000000000000000000000000000000000000000000602082015250565b6000613c2c602983612df5565b9150613c3782613bd0565b604082019050919050565b60006020820190508181036000830152613c5b81613c1f565b9050919050565b7f4e487b7100000000000000000000000000000000000000000000000000000000600052601160045260246000fd5b6000613c9c82612e9c565b91507fffffffffffffffffffffffffffffffffffffffffffffffffffffffffffffffff8203613cce57613ccd613c62565b5b600182019050919050565b7f7072696365206d7573742062652061746c656173742031206574680000000000600082015250565b6000613d0f601b83612df5565b9150613d1a82613cd9565b602082019050919050565b60006020820190508181036000830152613d3e81613d02565b9050919050565b7f546f6b656e2055524920616c7265616479206578697374730000000000000000600082015250565b6000613d7b601883612df5565b9150613d8682613d45565b602082019050919050565b60006020820190508181036000830152613daa81613d6e565b9050919050565b6000613dbd8285613aed565b9150613dc98284613aed565b91508190509392505050565b6000613de082612e9c565b9150613deb83612e9c565b9250828201905080821115613e0357613e02613c62565b5b92915050565b7f4f776e61626c653a206e6577206f776e657220697320746865207a65726f206160008201527f6464726573730000000000000000000000000000000000000000000000000000602082015250565b6000613e65602683612df5565b9150613e7082613e09565b604082019050919050565b60006020820190508181036000830152613e9481613e58565b9050919050565b7f4552433732313a207472616e736665722066726f6d20696e636f72726563742060008201527f6f776e6572000000000000000000000000000000000000000000000000000000602082015250565b6000613ef7602583612df5565b9150613f0282613e9b565b604082019050919050565b60006020820190508181036000830152613f2681613eea565b9050919050565b7f4552433732313a207472616e7366657220746f20746865207a65726f2061646460008201527f7265737300000000000000000000000000000000000000000000000000000000602082015250565b6000613f89602483612df5565b9150613f9482613f2d565b604082019050919050565b60006020820190508181036000830152613fb881613f7c565b9050919050565b6000613fca82612e9c565b9150613fd583612e9c565b9250828203905081811115613fed57613fec613c62565b5b92915050565b7f436f756e7465723a2064656372656d656e74206f766572666c6f770000000000600082015250565b6000614029601b83612df5565b915061403482613ff3565b602082019050919050565b600060208201905081810360008301526140588161401c565b9050919050565b7f4f776e61626c653a2063616c6c6572206973206e6f7420746865206f776e6572600082015250565b6000614095602083612df5565b91506140a08261405f565b602082019050919050565b600060208201905081810360008301526140c481614088565b9050919050565b7f4552433732313a20617070726f766520746f2063616c6c657200000000000000600082015250565b6000614101601983612df5565b915061410c826140cb565b602082019050919050565b60006020820190508181036000830152614130816140f4565b9050919050565b7f4552433732313a207472616e7366657220746f206e6f6e20455243373231526560008201527f63656976657220696d706c656d656e7465720000000000000000000000000000602082015250565b6000614193603283612df5565b915061419e82614137565b604082019050919050565b600060208201905081810360008301526141c281614186565b9050919050565b7f45524337323155524953746f726167653a2055524920736574206f66206e6f6e60008201527f6578697374656e7420746f6b656e000000000000000000000000000000000000602082015250565b6000614225602e83612df5565b9150614230826141c9565b604082019050919050565b6000602082019050818103600083015261425481614218565b9050919050565b60008190508160005260206000209050919050565b60006020601f8301049050919050565b600082821b905092915050565b6000600883026142bd7fffffffffffffffffffffffffffffffffffffffffffffffffffffffffffffffff82614280565b6142c78683614280565b95508019841693508086168417925050509392505050565b6000819050919050565b60006143046142ff6142fa84612e9c565b6142df565b612e9c565b9050919050565b6000819050919050565b61431e836142e9565b61433261432a8261430b565b84845461428d565b825550505050565b600090565b61434761433a565b614352818484614315565b505050565b5b818110156143765761436b60008261433f565b600181019050614358565b5050565b601f8211156143bb5761438c8161425b565b61439584614270565b810160208510156143a4578190505b6143b86143b085614270565b830182614357565b50505b505050565b600082821c905092915050565b60006143de600019846008026143c0565b1980831691505092915050565b60006143f783836143cd565b9150826002028217905092915050565b61441082612dea565b67ffffffffffffffff8111156144295761442861308e565b5b614433825461364d565b61443e82828561437a565b600060209050601f831160018114614471576000841561445f578287015190505b61446985826143eb565b8655506144d1565b601f19841661447f8661425b565b60005b828110156144a757848901518255600182019150602085019450602081019050614482565b868310156144c457848901516144c0601f8916826143cd565b8355505b6001600288020188555050505b505050505050565b7f7072696365206d7573742062652061746c656173742031657468000000000000600082015250565b600061450f601a83612df5565b915061451a826144d9565b602082019050919050565b6000602082019050818103600083015261453e81614502565b9050919050565b600060808201905061455a6000830187612fc7565b6145676020830186612fc7565b6145746040830185612f31565b6145816060830184612dc0565b95945050505050565b600081519050919050565b600082825260208201905092915050565b60006145b18261458a565b6145bb8185614595565b93506145cb818560208601612e06565b6145d481612e30565b840191505092915050565b60006080820190506145f46000830187612f31565b6146016020830186612f31565b61460e6040830185612fc7565b818103606083015261462081846145a6565b905095945050505050565b60008151905061463a81612d5b565b92915050565b60006020828403121561465657614655612d25565b5b60006146648482850161462b565b91505092915050565b7f4e487b7100000000000000000000000000000000000000000000000000000000600052601260045260246000fd5b60006146a782612e9c565b91506146b283612e9c565b9250826146c2576146c161466d565b5b828204905092915050565b60006146d882612e9c565b91506146e383612e9c565b9250826146f3576146f261466d565b5b828206905092915050565b7f4e487b7100000000000000000000000000000000000000000000000000000000600052603160045260246000fd5b7f4552433732313a206d696e7420746f20746865207a65726f2061646472657373600082015250565b6000614763602083612df5565b915061476e8261472d565b602082019050919050565b6000602082019050818103600083015261479281614756565b9050919050565b7f4552433732313a20746f6b656e20616c7265616479206d696e74656400000000600082015250565b60006147cf601c83612df5565b91506147da82614799565b602082019050919050565b600060208201905081810360008301526147fe816147c2565b905091905056fea2646970667358221220870789d8451dc03a7bafa2255b98d870b853bc062abbec3f711421dfde2e085c64736f6c63430008110033",
  "immutableReferences": {},
  "source": "// SPDX-License-Identifier: MIT\r\npragma solidity >=0.4.22 <0.9.0;\r\nimport \"@openzeppelin/contracts/token/ERC721/extensions/ERC721URIStorage.sol\";\r\nimport \"@openzeppelin/contracts/utils/Counters.sol\";\r\nimport \"@openzeppelin/contracts/access/Ownable.sol\";\r\n\r\ncontract NftMarket is ERC721URIStorage, Ownable {\r\n    using Counters for Counters.Counter;\r\n\r\n    struct NftItem {\r\n        uint256 tokenId;\r\n        uint256 price;\r\n        address creator;\r\n        bool isListed;\r\n    }\r\n\r\n    uint256 public listingPrice = 0.025 ether;\r\n\r\n    Counters.Counter private _listedItems;\r\n    Counters.Counter private _tokenIds;\r\n\r\n    \r\n    uint256[] private _allNfts;\r\n    mapping(uint => uint) private _idToNftIndex;\r\n\r\n    mapping(string => bool) private _usedTokenURIs;\r\n    mapping(uint256 => NftItem) private _idToNftItem;\r\n\r\n    mapping(address => mapping(uint => uint)) private _ownedTokens;\r\n    mapping(uint => uint) private _idToOwnedIndex;\r\n\r\n\r\n\r\n\r\n    event NftItemCreated(\r\n        uint256 tokenId,\r\n        uint256 price,\r\n        address creator,\r\n        bool isListed\r\n    );\r\n\r\n    constructor() ERC721(\"CreaturesNFT\", \"CNFT\") {}\r\n\r\n    function setListingPrice(uint256 newPrice) external onlyOwner {\r\n        require(newPrice > 0, \"price must be atleast 1 eth\");\r\n        listingPrice = newPrice;\r\n    }\r\n\r\n\r\n    function getNftItem(uint256 tokenId) public view returns (NftItem memory) {\r\n        return _idToNftItem[tokenId];\r\n    }\r\n\r\n    function listedItemsCount() public view returns (uint256) {\r\n        return _listedItems.current();\r\n    }\r\n\r\n    function tokenURIExists(string memory tokenURI) public view returns (bool) {\r\n        return _usedTokenURIs[tokenURI] == true;\r\n    }\r\n\r\n    function totalSupply() public view returns(uint){\r\n        return _allNfts.length;\r\n    }\r\n\r\n    function tokenByIndex(uint index) public view returns(uint){\r\n        require(index < totalSupply(), \"index out of the bounce\");\r\n         return _allNfts[index];\r\n    }\r\n\r\n    function tokenOfOwnerByIndex(address owner, uint index) public view returns(uint){\r\n        require(index < ERC721.balanceOf(owner), \"index out of the bounce\");\r\n        return _ownedTokens[owner][index];\r\n    }\r\n\r\n    function getOwnedNfts() public view returns(NftItem[] memory){\r\n      uint ownedItemsCount = ERC721.balanceOf(msg.sender);\r\n      NftItem[] memory items = new NftItem[](ownedItemsCount);\r\n\r\n      for (uint i = 0; i < ownedItemsCount; i++) {  \r\n            uint tokenId = tokenOfOwnerByIndex(msg.sender, i);\r\n            NftItem storage item = _idToNftItem[tokenId];\r\n            items[i] = item;\r\n      }\r\n\r\n      return items;\r\n    }\r\n\r\n    \r\n    function getAllNftOnSale() public view returns(NftItem[] memory){\r\n       uint allItemsCount = totalSupply();\r\n       uint currentIndex = 0;\r\n       NftItem[] memory items = new NftItem[](_listedItems.current());\r\n\r\n      for(uint i=0; i< allItemsCount; i++){\r\n        uint tokenId = tokenByIndex(i);\r\n        NftItem storage item = _idToNftItem[tokenId];\r\n      \r\n        if(item.isListed == true){\r\n            items[currentIndex] = item;\r\n            currentIndex +=1;\r\n        }      \r\n      }\r\n        return items;\r\n\r\n    }\r\n\r\n    function buyNft(uint256 tokenId) public payable {\r\n        uint256 price = _idToNftItem[tokenId].price;\r\n        address owner = ERC721.ownerOf(tokenId);\r\n\r\n        require(msg.sender != owner, \"You already own this nft\");\r\n        require(msg.value == price, \"Please submit the correct price\");\r\n\r\n        _idToNftItem[tokenId].isListed = false;\r\n        _listedItems.decrement();\r\n\r\n        _transfer(owner, msg.sender, tokenId);\r\n        payable(owner).transfer(msg.value);\r\n    }\r\n\r\n    function mintToken(string memory tokenURI, uint256 price)\r\n        public\r\n        payable\r\n        returns (uint256)\r\n    {\r\n        require(!tokenURIExists(tokenURI), \"Token URI already exists\");\r\n        require(\r\n            msg.value == listingPrice,\r\n            \"Price must be equal to listing price\"\r\n        );\r\n\r\n        _tokenIds.increment();\r\n        _listedItems.increment();\r\n\r\n        uint256 newTokenId = _tokenIds.current();\r\n\r\n        _safeMint(msg.sender, newTokenId);\r\n        _setTokenURI(newTokenId, tokenURI);\r\n        _createNftItem(newTokenId, price);\r\n        _usedTokenURIs[tokenURI] = true;\r\n\r\n        return newTokenId;\r\n    }\r\n\r\n\r\n    function placeNftOnSale(uint tokenId, uint newPrice) public payable {\r\n       \r\n        require(ERC721.ownerOf(tokenId) == msg.sender, \"Not Own NFT\");\r\n        require(_idToNftItem[tokenId].isListed == false, \"item soled\");   \r\n        require(msg.value == listingPrice, \"Price must be equal to listing price\");   \r\n\r\n        _idToNftItem[tokenId].isListed = true;\r\n        _idToNftItem[tokenId].price = newPrice;\r\n        _listedItems.increment();\r\n\r\n    }\r\n\r\n\r\n    // all private functions\r\n\r\n    function _createNftItem(uint256 tokenId, uint256 price) private {\r\n        require(price > 0, \"price must be atleast 1eth\");\r\n\r\n        _idToNftItem[tokenId] = NftItem(tokenId, price, msg.sender, true);\r\n\r\n        emit NftItemCreated(tokenId, price, msg.sender, true);\r\n    }\r\n\r\n\r\n    // minting tokens\r\n    function _beforeTokenTransfer(\r\n        address from,\r\n        address to,\r\n        uint tokenId\r\n        ) internal virtual override {\r\n\r\n            \r\n        super._beforeTokenTransfer(from, to, tokenId);\r\n        if(from == address(0)){\r\n            _addTokenToAllTokensEnumeration(tokenId);\r\n        } else if(from != to){\r\n            _removeTokenFromOwnerEnumeration(from, tokenId);\r\n        }\r\n\r\n        if(to == address(0)){\r\n            _removeTokenFromAllEnumeration(tokenId);\r\n        }else \r\n        if(to != from){\r\n            _addTokenToOwnerTokensEnumeration(to, tokenId);\r\n        }\r\n\r\n   \r\n    }\r\n\r\n    function _addTokenToAllTokensEnumeration(uint tokenId) private {\r\n        _idToNftIndex[tokenId] = _allNfts.length;\r\n        _allNfts.push(tokenId);\r\n    }\r\n\r\n\r\n     function _addTokenToOwnerTokensEnumeration(address to,uint tokenId) private {\r\n      uint length = ERC721.balanceOf(to);\r\n\r\n      _ownedTokens[to][length] = tokenId;\r\n      _idToOwnedIndex[tokenId] = length;\r\n    }\r\n\r\n    function _removeTokenFromOwnerEnumeration(address from,uint tokenId) private {\r\n  uint lastTokenIndex = ERC721.balanceOf(from) - 1;\r\n  uint tokenIndex = _idToOwnedIndex[tokenId];\r\n\r\n if(tokenIndex != lastTokenIndex){\r\n    uint lastTokenId = _ownedTokens[from][lastTokenIndex];\r\n\r\n    _ownedTokens[from][tokenIndex] = lastTokenId;\r\n    _idToOwnedIndex[lastTokenId] = tokenIndex;\r\n } \r\n delete _idToOwnedIndex[tokenId];\r\n delete _ownedTokens[from][lastTokenIndex];\r\n}\r\n\r\nfunction _removeTokenFromAllEnumeration(uint tokenId) private {\r\n  uint lastTokenIndex = _allNfts.length - 1;\r\n  uint tokenIndex = _idToNftIndex[tokenId];\r\n  uint lasttokenId = _allNfts[lastTokenIndex];\r\n\r\n  _allNfts[tokenIndex] = lasttokenId;\r\n  _idToNftIndex[lasttokenId] = tokenIndex;\r\n\r\n  delete _idToNftIndex[tokenId];\r\n  _allNfts.pop();\r\n}\r\n}\r\n",
  "sourcePath": "C:\\Users\\lenovo\\Desktop\\blockchainProject\\FYP\\client\\contracts\\NftMarket.sol",
  "compiler": {
    "name": "solc",
    "version": "0.8.17+commit.8df45f5f.Emscripten.clang"
  },
  "schemaVersion": "3.4.10",
  "updatedAt": "2022-12-17T21:16:36.412Z",
  "networkType": "ethereum",
  "devdoc": {
    "kind": "dev",
    "methods": {
      "approve(address,uint256)": {
        "details": "See {IERC721-approve}."
      },
      "balanceOf(address)": {
        "details": "See {IERC721-balanceOf}."
      },
      "getApproved(uint256)": {
        "details": "See {IERC721-getApproved}."
      },
      "isApprovedForAll(address,address)": {
        "details": "See {IERC721-isApprovedForAll}."
      },
      "name()": {
        "details": "See {IERC721Metadata-name}."
      },
      "owner()": {
        "details": "Returns the address of the current owner."
      },
      "ownerOf(uint256)": {
        "details": "See {IERC721-ownerOf}."
      },
      "renounceOwnership()": {
        "details": "Leaves the contract without owner. It will not be possible to call `onlyOwner` functions anymore. Can only be called by the current owner. NOTE: Renouncing ownership will leave the contract without an owner, thereby removing any functionality that is only available to the owner."
      },
      "safeTransferFrom(address,address,uint256)": {
        "details": "See {IERC721-safeTransferFrom}."
      },
      "safeTransferFrom(address,address,uint256,bytes)": {
        "details": "See {IERC721-safeTransferFrom}."
      },
      "setApprovalForAll(address,bool)": {
        "details": "See {IERC721-setApprovalForAll}."
      },
      "supportsInterface(bytes4)": {
        "details": "See {IERC165-supportsInterface}."
      },
      "symbol()": {
        "details": "See {IERC721Metadata-symbol}."
      },
      "tokenURI(uint256)": {
        "details": "See {IERC721Metadata-tokenURI}."
      },
      "transferFrom(address,address,uint256)": {
        "details": "See {IERC721-transferFrom}."
      },
      "transferOwnership(address)": {
        "details": "Transfers ownership of the contract to a new account (`newOwner`). Can only be called by the current owner."
      }
    },
    "version": 1
  },
  "userdoc": {
    "kind": "user",
    "methods": {},
    "version": 1
  }
}